:100000000C9481000C94A9000C94A9000C947D051B
:100010000C947D050C947D050C94A9000C94A9000A
:100020000C94A9000C94A9000C94A9000C94A900AC
:100030000C94A9000C94A9000C94A9000C94A9009C
:100040000C9433050C94A9000C9401050C94DB046A
:100050000C94A9000C94A9000C94A9000C94A9007C
:100060000C94A9000C94A9004E414E494E49545994
:10007000494E46CDCCCC3D0AD7233C17B7D1387773
:10008000CC2B329595E6241FB14F0A000020410089
:1000900000C84200401C4620BCBE4CCA1B0E5AAED3
:1000A000C59D7400000000240027002A0000000005
:1000B00000250028002B0000000000230026002956
:1000C0000004040404040404040202020202020301
:1000D000030303030301020408102040800102040B
:1000E000081020010204081020000000080002018E
:1000F0000000030407000000000000000000870566
:100100006E0911241FBECFEFD8E0DEBFCDBF22E0C5
:10011000ACEBB1E001C01D92A03AB207E1F711E0EB
:10012000A0E0B1E0E6E4FFE102C005900D92AC3B37
:10013000B107D9F710E0C0E8D0E004C02197FE0174
:100140000E949E0DCF37D107C9F70E9429060C9453
:10015000960F0C9400000895AF92BF92CF92DF9259
:10016000EF92FF920F931F93CF93DF936C017B016C
:100170008B01040F151FEB015E01AE18BF08C017FD
:10018000D10759F06991D601ED91FC910190F08170
:10019000E02DC6010995892B79F7C501DF91CF9133
:1001A0001F910F91FF90EF90DF90CF90BF90AF9095
:1001B0000895FC01538D448D252F30E0842F90E06D
:1001C000821B930B541710F0CF9608950197089552
:1001D000FC01918D828D981761F0A28DAE0FBF2F1B
:1001E000B11D5D968C91928D9F5F9F73928F90E071
:1001F00008958FEF9FEF08952FB7F8948091DB015A
:100200009091DC01A091DD01B091DE012FBF8093C0
:10021000E7019093E801A093E901B093EA018FED23
:1002200091E00E94E80097FF26C02FB7F8948091D4
:10023000DB019091DC01A091DD01B091DE012FBFC7
:100240004091E7015091E8016091E9017091EA0164
:10025000841B950BA60BB70B4091E3015091E40171
:100260006091E5017091E60184179507A607B7072D
:10027000B0F28FEF9FEF0895FC01918D828D98175A
:1002800031F0828DE80FF11D858D90E008958FEF9C
:100290009FEF0895FC01918D228D892F90E0805C65
:1002A0009F4F821B91098F73992708958FED91E0DD
:1002B0000E944A0121E0892B09F420E0822F089551
:1002C00080E090E0892B29F00E94560181110C9466
:1002D00000000895FC01A48DA80FB92FB11DA35AE9
:1002E000BF4F2C91848D90E001968F739927848F56
:1002F000A689B7892C93A089B1898C918370806479
:100300008C93938D848D981306C00288F389E02D19
:1003100080818F7D80830895EF92FF920F931F93CA
:10032000CF93DF93EC0181E0888F9B8D8C8D9813A8
:100330001AC0E889F989808185FF15C09FB7F894B4
:10034000EE89FF896083E889F98980818370806400
:1003500080839FBF81E090E0DF91CF911F910F914B
:10036000FF90EF900895F62E0B8D10E00F5F1F4F5A
:100370000F731127E02E8C8D8E110CC00FB607FC69
:10038000FACFE889F989808185FFF5CFCE010E94F7
:100390006A01F1CFEB8DEC0FFD2FF11DE35AFF4FFA
:1003A000F0829FB7F8940B8FEA89FB898081806285
:1003B000CFCFCF93DF93EC01888D8823B9F0AA8942
:1003C000BB89E889F9898C9185FD03C0808186FD10
:1003D0000DC00FB607FCF7CF8C9185FFF2CF80815F
:1003E00085FFEDCFCE010E946A01E9CFDF91CF9169
:1003F0000895833081F028F4813099F08230A9F09B
:1004000008958730A9F08830C9F08430B1F4809124
:1004100080008F7D03C0809180008F778093800063
:10042000089584B58F7784BD089584B58F7DFBCF03
:100430008091B0008F778093B00008958091B000D4
:100440008F7DF9CFCF93DF93282F30E0F901E7516B
:10045000FF4F8491F901EB52FF4FD491F901EF5313
:10046000FF4FC491CC23A1F081110E94F901EC2F20
:10047000F0E0EE0FFF1FE954FF4FA591B491EC910E
:10048000ED2381E090E009F480E0DF91CF910895C1
:1004900080E090E0FACF1F93CF93DF93282F30E0D6
:1004A000F901E751FF4F8491F901EB52FF4FD491CD
:1004B000F901EF53FF4FC491CC23A9F0162F8111FE
:1004C0000E94F901EC2FF0E0EE0FFF1FE355FF4F04
:1004D000A591B4918FB7F894EC91111108C0D09503
:1004E000DE23DC938FBFDF91CF911F910895DE2B28
:1004F000F8CFCF93DF9390E0FC01EB52FF4F2491B4
:100500008F539F4FFC0184918823D1F090E0880F96
:10051000991FFC01ED55FF4FA591B491FC01E355E6
:10052000FF4FC591D49161110EC09FB7F8948C9183
:10053000E22FE0958E238C932881E223E8839FBFEE
:10054000DF91CF9108958FB7F894EC91E22BEC9363
:100550008FBFF6CF3FB7F8948091BF019091C00153
:10056000A091C101B091C20126B5A89B05C02F3F43
:1005700019F00196A11DB11D3FBFBA2FA92F982FC9
:100580008827BC01CD01620F711D811D911D42E0C4
:10059000660F771F881F991F4A95D1F708958F928C
:1005A0009F92AF92BF92CF92DF92EF92FF924B0158
:1005B0005C010E94AA026B017C010E94AA026C19D4
:1005C0007D098E099F09683E734081059105A8F356
:1005D00021E0821A9108A108B10888EEC80E83E0D4
:1005E000D81EE11CF11C81149104A104B10429F767
:1005F000FF90EF90DF90CF90BF90AF909F908F9043
:10060000089590E080E00895CF93DF93EC0160E0DF
:100610008E810E944B0261E08E810E944B0260E05D
:100620008E810E944B028BE891E00197F1F7DF91F8
:10063000CF910895CF92DF92EF92FF920F931F9385
:10064000CF93DF936C017C0187E0E80EF11CD0E0D2
:10065000C0E0062F10E0B8010C2E02C0759567951A
:100660000A94E2F76170F70181917F010E944B02C9
:100670002196C430D10579F7C601DF91CF911F9142
:100680000F91FF90EF90DF90CF900C940403CF92E6
:10069000DF92EF92FF920F931F93CF93DF93EC01C2
:1006A000F62E642F8C810E944B028D818F3F19F0B2
:1006B00060E00E944B020F2D10E08F8584FF25C063
:1006C0006E0187E0C80ED11CF12CE12CB8010E2C74
:1006D00002C0759567950A94E2F76170F601819101
:1006E0006F010E944B02FFEFEF1AFF0A88E0E81645
:1006F000F10461F7CE01DF91CF911F910F91FF902F
:10070000EF90DF90CF900C940403B80184E07595CE
:1007100067958A95E1F7CE010E941A036F2DCE01ED
:10072000DF91CF911F910F91FF90EF90DF90CF90CD
:100730000C941A0340E0682F82E892E00C9447037F
:1007400081E00E949A038BE39FE10197F1F70895FE
:10075000CF93DF93823029F4909191029860909327
:100760009102809395021092960280E48093970202
:1007700080E18093980280E58093990261E0809106
:1007800086020E947902809187028F3F19F061E012
:100790000E94790261E0809188020E947902C2E899
:1007A000D2E09E01225832408091910284FD0BC01C
:1007B00084E090E021962817390744F461E08E81A7
:1007C0000E947902EECF88E090E0F4CF8BE39DE0C9
:1007D0000197F1F760E0809186020E944B0260E091
:1007E000809188020E944B02809187028F3F19F00E
:1007F00060E00E944B028091910284FD34C063E06E
:1008000082E892E00E941A03CBE4D6E4CE0101977D
:10081000F1F763E082E892E00E941A032197F1F772
:1008200063E082E892E00E941A0383E592E0019778
:10083000F1F762E082E892E00E941A03809191024F
:1008400080620E949A0384E0809392028CE00E946E
:100850009A030E94A00382E08093930286E0DF91D6
:10086000CF910C949A0380620E949A038BE496E4E1
:100870000197F1F78091910280620E949A0383E5CB
:1008800092E00197F1F78091910280620E949A03B1
:10089000D5CF90919502691710F06FEF690FE62F91
:1008A000F0E0EE57FD4F9489890F80680C949A030D
:1008B00041E00E94470381E090E00895FB01019030
:1008C0000020E9F73197AF01461B570BDC01ED9192
:1008D000FC910280F381E02D09948F929F92AF9258
:1008E000BF920F931F93CF93DF93CDB7DEB7A1973E
:1008F0000FB6F894DEBF0FBECDBF19A2423008F488
:100900004AE08E010F5D1F4F842E912CB12CA12C3B
:10091000A50194010E947C0DE62FB901CA01EA30BD
:1009200004F5E05DD801EE938D01232B242B252BBC
:1009300079F790E080E0109729F0BD0182E892E01D
:100940000E945E04A1960FB6F894DEBF0FBECDBF25
:10095000DF91CF911F910F91BF90AF909F908F909B
:100960000895E95CDFCF0F931F93CF93DF93EC01E2
:1009700088819981009759F02A813B812617370792
:1009800030F081E0DF91CF911F910F9108958B019D
:100990006F5F7F4F0E94C90E009759F0998388833B
:1009A0001B830A832C813D81232B59F7FC01108284
:1009B000E8CF80E0E7CF1F920F920FB60F9211247D
:1009C0002F933F934F935F936F937F938F939F9357
:1009D000AF93BF93EF93FF938FED91E00E946A0175
:1009E000FF91EF91BF91AF919F918F917F916F9107
:1009F0005F914F913F912F910F900FBE0F901F90DD
:100A000018951F920F920FB60F9211242F938F9368
:100A10009F93EF93FF93E091EF01F091F0018081BC
:100A2000E091F501F091F60182FD1BC0908180916B
:100A3000F8018F5F8F732091F901821741F0E091E7
:100A4000F801F0E0E152FE4F958F8093F801FF919D
:100A5000EF919F918F912F910F900FBE0F901F904C
:100A600018958081F4CF1F920F920FB60F92112428
:100A70002F933F938F939F93AF93BF938091DB010D
:100A80009091DC01A091DD01B091DE013091BE01B9
:100A900023E0230F2D3758F50196A11DB11D20939A
:100AA000BE018093DB019093DC01A093DD01B09344
:100AB000DE018091BF019091C001A091C101B09170
:100AC000C2010196A11DB11D8093BF019093C00189
:100AD000A093C101B093C201BF91AF919F918F913B
:100AE0003F912F910F900FBE0F901F90189526E801
:100AF000230F0296A11DB11DD2CF1F920F920FB6E8
:100B00000F9211240F900FBE0F901F901895109206
:100B1000E2011092E10188EE93E0A0E0B0E0809362
:100B2000E3019093E401A093E501B093E6018AE02C
:100B300091E09093E0018093DF0185EC90E0909349
:100B4000EC018093EB0184EC90E09093EE018093B4
:100B5000ED0180EC90E09093F0018093EF0181EC47
:100B600090E09093F2018093F10182EC90E09093F9
:100B7000F4018093F30186EC90E09093F60180936A
:100B8000F5011092F8011092F9011092FA011092F9
:100B9000FB0110928502109284028CE191E0909307
:100BA00083028093820289E0809386028FEF809394
:100BB000870288E08093880284E08093890285E040
:100BC00080938A0286E080938B0287E080938C0278
:100BD00010928D0210928E0210928F02109290024B
:100BE0001092910281E00E94A80310927D0210925F
:100BF0007C0210927F0210927E021092810210926B
:100C0000800270E060E08CE792E00E94B3042091E3
:100C10007C0230917D02811113C02115310519F03C
:100C2000C9010E94400E10927D0210927C02109227
:100C300081021092800210927F0210927E0208952B
:100C400010928102109280026AE371E0C9010C9453
:100C50008F0FCF93DF93CDB7DEB728970FB6F894F9
:100C6000DEBF0FBECDBF789484B5826084BD84B5ED
:100C7000816084BD85B5826085BD85B5816085BD97
:100C800080916E00816080936E001092810080914F
:100C900081008260809381008091810081608093D7
:100CA0008100809180008160809380008091B100FC
:100CB00084608093B1008091B00081608093B00027
:100CC00080917A00846080937A0080917A008260BB
:100CD00080937A0080917A00816080937A0080917D
:100CE0007A00806880937A001092C100E091EF0151
:100CF000F091F00182E08083E091EB01F091EC0152
:100D00001082E091ED01F091EE018FEC8083109262
:100D1000F701E091F301F091F40186E08083E09126
:100D2000F101F091F201808180618083E091F10115
:100D3000F091F201808188608083E091F101F0916F
:100D4000F201808180688083E091F101F091F201ED
:100D500080818F7D808364E271E08FED91E00E945D
:100D60005E0468E371E08FED91E00E945E0460E054
:100D700082E00E94790260E083E00E94790261E0F3
:100D80008DE00E94790282E00E94A8030E94A003E5
:100D900060E084E00E9449046BE371E082E892E045
:100DA0000E945E0461E082E00E94490463E471E015
:100DB00082E892E00E945E046CED75E080E090E0D5
:100DC0000E94CF028FED91E00E944A011816190689
:100DD0000CF082C01A8219821C821B821E821D8224
:100DE00070E060E0CE0101960E94B30429813A814F
:100DF00081112BC02115310519F0C9010E94400E47
:100E00001A8219821E821D821C821B820E94FC0093
:100E100097FD23C08F8318860D811E810F5F1F4FA2
:100E2000B801CE0101960E94B304882379F3298189
:100E30003A818D819E81BE01695F7F4F820F931F32
:100E40000E948F0F1E830D83E1CF1E821D826AE3F5
:100E500071E0C9010E948F0FD9CF80917C029091DF
:100E60007D02009711F169817A8161157105D9F0D0
:100E700040917E0250917F022D813E81421753079F
:100E800090F00E948F0F8D819E81909381028093BC
:100E900080021E821D8289819A81009709F492CF77
:100EA0000E94400E8FCF0E94400E89819A819093BC
:100EB0007D0280937C028B819C8190937F02809342
:100EC0007E028D819E8190938102809380021A829E
:100ED00019821C821B82DDCF80917C0290917D0261
:100EE000009709F405C10E9477096093C3017093CC
:100EF000C4018093C5019093C60161E571E08FED57
:100F000091E00E945E0468E371E08FED91E00E9441
:100F10005E0464E873E080E090E00E94CF020E94EB
:100F2000A00300E010E082E00E9422027C0181E048
:100F3000E816F104F9F48091D9019091DA01892B36
:100F4000C9F42FB7F8946091DB017091DC018091B6
:100F5000DD019091DE012FBF0E94F10A6093D5015F
:100F60007093D6018093D7019093D801F092DA0163
:100F7000E092D90183E00E9422027C0181E0E81620
:100F8000F104F9F48091D3019091D401892BC9F433
:100F90002FB7F8946091DB017091DC018091DD0145
:100FA0009091DE012FBF0E94F10A6093CF017093F0
:100FB000D0018093D1019093D201F092D401E092BC
:100FC000D301A090D901B090DA0181E0A816B10454
:100FD00009F060C08091D3019091D401019709F08C
:100FE00059C04090D5015090D6016090D7017090C3
:100FF000D801C090CF01D090D001E090D101F09005
:10100000D201A7019601C301B2010E94720DA7018E
:10101000960118160CF070C0C301B2010E94640C56
:101020006093CB017093CC018093CD019093CE015E
:1010300020E030E04AE754E46091CB017091CC01AC
:101040008091CD019091CE010E94D10C9B01AC0109
:101050002093CB013093CC014093CD015093CE012E
:1010600060E070E080EA90E40E94D10C20E030E083
:1010700041E655E40E94520B20E030E04AE754E498
:101080000E94D10C6093C7017093C8018093C9017D
:101090009093CA0120E030E0A9016091C7017091EE
:1010A000C8018091C9019091CA010E94EC0A811186
:1010B0002EC061E00E944904AB2841F48091D30125
:1010C0009091D4016BE571E0892B11F06CE671E031
:1010D00082E892E00E945E040115110509F423CF15
:1010E0000E945601882309F41ECF0E9400001BCFE6
:1010F00060E070E0CB01F9CEC301B2010E94EC0ABE
:1011000087FF96CFA3019201C701B60187CF0E9446
:10111000A00360E080E00E9449046DE771E082E88E
:1011200092E00E945E04C090C701D090C801E09098
:10113000C901F090CA01A7019601C701B6010E943A
:10114000770D64E871E081111BC026013701E89436
:1011500077F82FEF3FEF4FE75FE7C301B2010E943F
:10116000770D811157C02FEF3FEF4FE75FE7C301C6
:10117000B2010E94EC0A18160CF04CC068E871E04D
:1011800082E892E00E945E0460E971E082E892E009
:101190000E945E0461E080E00E9449042091C30146
:1011A0003091C4014091C5015091C6016091C701C1
:1011B0007091C8018091C9019091CA010E94720D7D
:1011C00018160CF084C068E971E082E892E00E9491
:1011D0005E0461E08DE00E944B0268EE73E080E007
:1011E00090E00E94CF0260E08DE00E944B020E94DE
:1011F000A0031092C7011092C8011092C901109269
:10120000CA011092DA011092D9011092D401109201
:10121000D30162CF2FEF3FEF4FE75FE4C701B60185
:101220000E94720D18161CF46CE871E0A9CF2FEF24
:101230003FEF4FE75FECC701B6010E94EC0A87FD64
:10124000F3CF20E030E0A901C701B6010E94EC0A0B
:1012500087FF0AC041E06DE282E892E00E94470306
:10126000F7FAF094F7F8F0942DEC3CEC4CE45DE3E5
:10127000C701B6010E94650C2B013C010E94430D81
:101280006B017C010E94F10A9B01AC01C301B20118
:101290000E94640C2B013C014AE0C701B6010E9488
:1012A0006D0441E06EE282E892E00E94470320E094
:1012B00030E040E251E4C301B2010E94520B0E94AF
:1012C000430D90E080E04AE00E946D045DCF6AEA41
:1012D00071E082E892E00E945E047FCF80917C0200
:1012E00090917D02009711F00C94400E08956627AE
:1012F00077270C947B09B0E0A0E0E1E8F9E00C94DA
:10130000240C5C017B016115710519F0DB018D93E3
:101310009C9385010F5F1F4FF501D0818D2F90E0C9
:101320000E94CB0A6C01892BB9F5DD32B9F50F5F4C
:101330001F4FD5011196DC91C1E05801F1E0AF1AC1
:10134000B10843E050E060E770E0C5010E94D40AB4
:10135000892B69F5680182E0C80ED11C45E050E098
:101360006BE670E0C6010E94D40A892B21F4680163
:1013700097E0C90ED11CE114F10419F0D701CD9208
:10138000DC9260E070E080E89FEFC111FFC060E098
:1013900070E080E89FE7FAC05801BBCFDB3229F448
:1013A00085010E5F1F4FF501D181C0E0C6CF43E03C
:1013B00050E068E670E0C5010E94D40A892BE9F08C
:1013C000F80110E000E020E030E0A9015F01B0ED9D
:1013D0008B2E8D0E89E08815C8F19C2E689491F8AB
:1013E0008C2F8870C2FF16C0811102C00F5F1F4F83
:1013F0003196D501DC91C92DE9CFE114F10429F032
:101400000E5F1F4FF7011183008360E070E080ECF6
:101410009FE7BCC0882311F001501109A5E0B0E09E
:101420000E94130C9B01AC01220F331F441F551F58
:10143000280D311D411D511D283999E939074907EA
:1014400099E15907A8F2C6609C2ED2CFAEEF8A125E
:1014500006C0C3FD3CC09C2E689493F8C9CFDF7DC5
:10146000D534A9F580818D3239F4C061DF0112963F
:10147000818162E070E006C0DF018B32C1F311961A
:1014800061E070E080535D01A61AB70A8A30F8F473
:10149000E0E8CE16ECE0DE065CF4B601660F771FDE
:1014A000660F771FC60ED71ECC0CDD1CC80ED11CD4
:1014B0005D01FFEFAF1ABF0A8C9180538A30A8F10B
:1014C000C4FF03C0D194C194D1080C0D1D1DC1FFF0
:1014D00009C0E114F10431F081E0A81AB108D70184
:1014E000AD92BC92CA01B9010E94F10AC370C33027
:1014F00009F490584B015C0120E030E0A9010E9402
:10150000EC0A882309F440C0CFE9D0E017FF05C0FA
:10151000119501951109C7E8D0E06E01B8E1CB1A29
:10152000D10880E2E82EF12C0FC0D501B1CFFE0129
:1015300025913591459154910E191F09C501B401AA
:101540000E94520B4B015C01D501C4010E151F0511
:1015500074F72497F594E794CC16DD06A9F78A2F43
:10156000880F8B2F881F8F3F49F020E030E0A901C2
:10157000C501B4010E94EC0A811106C082E290E02C
:1015800090939B0280939A02C501B401CDB7DEB758
:10159000ECE00C94400C91110C94BF0B803219F0CC
:1015A00089508550C8F70895FB01DC014150504037
:1015B00088F08D9181341CF08B350CF4805E659140
:1015C00061341CF06B350CF4605E861B611171F3A5
:1015D000990B0895881BFCCF0E942E0B08F481E024
:1015E0000895E89409C097FB3EF490958095709516
:1015F00061957F4F8F4F9F4F9923A9F0F92F96E95F
:10160000BB279395F695879577956795B795F111D3
:10161000F8CFFAF4BB0F11F460FF1BC06F5F7F4F70
:101620008F4F9F4F16C0882311F096E911C0772382
:1016300021F09EE8872F762F05C0662371F096E88B
:10164000862F70E060E02AF09A95660F771F881F5A
:10165000DAF7880F9695879597F90895990F0008FE
:10166000550FAA0BE0E8FEEF16161706E807F90774
:10167000C0F012161306E407F50798F0621B730B0F
:10168000840B950B39F40A2661F0232B242B252B90
:1016900021F408950A2609F4A140A6958FEF811D33
:1016A000811D08950E94650B0C94D90B0E94CB0BF1
:1016B00038F00E94D20B20F0952311F00C94C20B4D
:1016C0000C94C80B11240C940D0C0E94EA0B70F3BF
:1016D000959FC1F3950F50E0551F629FF001729FD7
:1016E000BB27F00DB11D639FAA27F00DB11DAA1FE6
:1016F000649F6627B00DA11D661F829F2227B00D33
:10170000A11D621F739FB00DA11D621F839FA00DBD
:10171000611D221F749F3327A00D611D231F849F0D
:10172000600D211D822F762F6A2F11249F57504064
:101730009AF0F1F088234AF0EE0FFF1FBB1F661FDF
:10174000771F881F91505040A9F79E3F510580F0A8
:101750000C94C20B0C940D0C5F3FE4F3983ED4F351
:10176000869577956795B795F795E7959F5FC1F74C
:10177000FE2B880F911D9695879597F908959927C7
:101780008827089597F99F6780E870E060E00895E2
:101790009FEF80EC089500240A9416161706180689
:1017A0000906089500240A94121613061406050665
:1017B0000895092E0394000C11F4882352F0BB0FF6
:1017C00040F4BF2B11F460FF04C06F5F7F4F8F4F59
:1017D0009F4F089557FD9058440F551F59F05F3F94
:1017E00071F04795880F97FB991F61F09F3F79F043
:1017F00087950895121613061406551FF2CF4695C5
:10180000F1DF08C0161617061806991FF1CF869546
:101810007105610508940895E894BB27662777272A
:10182000CB0197F908950E94550CA59F900DB49F88
:10183000900DA49F800D911D112408952F923F9229
:101840004F925F926F927F928F929F92AF92BF92D0
:10185000CF92DF92EF92FF920F931F93CF93DF937C
:10186000CDB7DEB7CA1BDB0B0FB6F894DEBF0FBED9
:10187000CDBF09942A88398848885F846E847D8426
:101880008C849B84AA84B984C884DF80EE80FD8028
:101890000C811B81AA81B981CE0FD11D0FB6F8949E
:1018A000DEBF0FBECDBFED010895A29FB001B39F73
:1018B000C001A39F700D811D1124911DB29F700D59
:1018C000811D1124911D08955058BB27AA270E94FD
:1018D0007C0C0C94D90B0E94CB0B38F00E94D20BDD
:1018E00020F039F49F3F19F426F40C94C80B0EF441
:1018F000E095E7FB0C94C20BE92F0E94EA0B58F32A
:10190000BA17620773078407950720F079F4A6F5E4
:101910000C940C0C0EF4E0950B2EBA2FA02D0B019D
:10192000B90190010C01CA01A0011124FF27591B24
:1019300099F0593F50F4503E68F11A16F040A22F2A
:10194000232F342F4427585FF3CF4695379527959B
:10195000A795F0405395C9F77EF41F16BA0B620B9A
:10196000730B840BBAF09150A1F0FF0FBB1F661FE1
:10197000771F881FC2F70EC0BA0F621F731F841F24
:1019800048F4879577956795B795F7959E3F08F04A
:10199000B0CF9395880F08F09927EE0F979587950C
:1019A00008950E94E50C0C94D90B0E94D20B58F0BC
:1019B0000E94CB0B40F029F45F3F29F00C94C20B3E
:1019C00051110C940D0C0C94C80B0E94EA0B68F397
:1019D0009923B1F3552391F3951B550BBB27AA27E8
:1019E00062177307840738F09F5F5F4F220F331F22
:1019F000441FAA1FA9F335D00E2E3AF0E0E832D0EA
:101A000091505040E695001CCAF72BD0FE2F29D0EC
:101A1000660F771F881FBB1F261737074807AB07BE
:101A2000B0E809F0BB0B802DBF01FF2793585F4F33
:101A30003AF09E3F510578F00C94C20B0C940D0CBB
:101A40005F3FE4F3983ED4F3869577956795B79515
:101A5000F7959F5FC9F7880F911D9695879597F920
:101A60000895E1E0660F771F881FBB1F6217730799
:101A70008407BA0720F0621B730B840BBA0BEE1FAE
:101A800088F7E09508950E94F20B88F09F5798F030
:101A9000B92F9927B751B0F0E1F0660F771F881F73
:101AA000991F1AF0BA95C9F714C0B13091F00E948D
:101AB0000C0CB1E008950C940C0C672F782F88273C
:101AC000B85F39F0B93FCCF3869577956795B395B4
:101AD000D9F73EF490958095709561957F4F8F4F23
:101AE0009F4F08950E942E0B08F48FEF08950E94D7
:101AF0002E0B880B990B0895A1E21A2EAA1BBB1B73
:101B0000FD010DC0AA1FBB1FEE1FFF1FA217B307C9
:101B1000E407F50720F0A21BB30BE40BF50B661FDF
:101B2000771F881F991F1A9469F7609570958095A3
:101B300090959B01AC01BD01CF010895EE0FFF1FF1
:101B40000590F491E02D09940F931F93CF93DF93A9
:101B50008230910510F482E090E0E0919E02F091D5
:101B60009F0230E020E0B0E0A0E0309799F421152A
:101B7000310509F44AC0281B390B24303105D8F54A
:101B80008A819B816115710589F1FB0193838283B1
:101B9000FE0111C04081518102811381481759070C
:101BA000E0F04817590799F4109761F012960C93DA
:101BB000129713961C933296CF01DF91CF911F910C
:101BC0000F91089500939E0210939F02F4CF211568
:101BD000310551F04217530738F0A901DB019A0192
:101BE000BD01DF01F801C1CFEF01F9CF90939F0252
:101BF00080939E02CDCFFE01E20FF31F819391935C
:101C00002250310939832883D7CF20919C0230910B
:101C10009D02232B41F42091020130910301309366
:101C20009D0220939C022091000130910101211519
:101C3000310541F42DB73EB74091040150910501A3
:101C4000241B350BE0919C02F0919D02E217F307F3
:101C5000A0F42E1B3F0B2817390778F0AC014E5F1C
:101C60005F4F2417350748F04E0F5F1F50939D02BA
:101C700040939C02819391939FCFF0E0E0E09CCF52
:101C8000CF93DF930097E9F0FC0132971382128221
:101C9000A0919E02B0919F02ED0130E020E01097EC
:101CA000A1F420813181820F931F20919C023091F9
:101CB0009D022817390709F061C0F0939D02E09357
:101CC0009C02DF91CF910895EA01CE17DF07E8F576
:101CD0004A815B819E0141155105B1F7E901FB8302
:101CE000EA8349915991C40FD51FEC17FD0761F4A0
:101CF000808191810296840F951FE90199838883E1
:101D0000828193819B838A83F0E0E0E012968D913B
:101D10009C9113970097B9F52D913C911197CD01A6
:101D20000296820F931F20919C0230919D022817EA
:101D3000390739F6309751F510929F0210929E02A2
:101D4000B0939D02A0939C02BCCFD383C2834081F9
:101D50005181840F951FC817D90761F44E5F5F4FFB
:101D600088819981480F591F518340838A819B81C3
:101D7000938382832115310509F0B0CFF0939F0240
:101D8000E0939E029ECFFD01DC01C0CF1382128240
:101D9000D7CFB0E0A0E0EFECFEE00C94200C8C017B
:101DA000009751F4CB010E94A40D8C01C801CDB75E
:101DB000DEB7E0E10C943C0CFC01E60FF71F9C0140
:101DC00022503109E217F30708F49DC0D901CD91E3
:101DD000DC911197C617D70798F0C530D10530F3BD
:101DE000CE0104978617970708F3C61BD70B2297D7
:101DF000C193D1936D937C93CF010E94400ED6CFB7
:101E00005B01AC1ABD0A4C018C0E9D1EA0919E0276
:101E1000B0919F02512C412CF12CE12C109731F5FF
:101E200080919C0290919D028815990509F05CC0F3
:101E30004616570608F058C08091000190910101A4
:101E4000009741F48DB79EB7409104015091050170
:101E5000841B950BE817F90708F055C0F0939D0215
:101E6000E0939C02F90171836083A0CF8D919C91D6
:101E7000119712966C90129713967C901397A81551
:101E8000B90559F56C0142E0C40ED11CCA14DB043B
:101E900020F1AC014A195B09DA011296159780F01E
:101EA0006282738251834083D9016D937C93E114E4
:101EB000F10471F0D7011396FC93EE93129776CF4D
:101EC00022968C0F9D1FF90191838083F301EFCF40
:101ED000F0939F02E0939E0269CF4816590608F4DA
:101EE0002C017D01D3019ACFCB010E94A40D7C016E
:101EF000009749F0AE01B8010E94860FC8010E9408
:101F0000400E870153CF10E000E050CFFB01DC0111
:101F100002C001900D9241505040D8F70895FB0146
:101F2000DC0101900D920020E1F7089510E0C0E877
:101F3000D0E004C0FE010E949E0D2196C138D10759
:061F4000C9F7F894FFCF81
:101F46000000A0028000000000008C01AC00D90057
:101F5600D9014A01E8003C01000000005804AC0029
:101F66000103AB00456E746572205370656564208D
:101F76004C696D69743A20000D0A0044494749547A
:101F8600414C0053504545444F4D455445522E2E25
:101F9600002E3030206B6D2F6872004E4F2043416B
:101FA600522044455445435445442000202057417F
:101FB6004954494E472E2E2E2020202000535045AE
:101FC60045443A006E616E00696E66006F76660083
:101FD6004B6D2F487220200020204F7665722053CB
:101FE60070656564696E6720200020204E6F726DF3
:0C1FF600616C20537065656420202000A1
:00000001FF
